{
  "contractName": "Calculator",
  "abi": [
    {
      "inputs": [],
      "stateMutability": "nonpayable",
      "type": "constructor"
    },
    {
      "inputs": [
        {
          "internalType": "int256",
          "name": "a",
          "type": "int256"
        },
        {
          "internalType": "int256",
          "name": "b",
          "type": "int256"
        }
      ],
      "name": "add",
      "outputs": [
        {
          "internalType": "int256",
          "name": "",
          "type": "int256"
        }
      ],
      "stateMutability": "nonpayable",
      "type": "function"
    },
    {
      "inputs": [
        {
          "internalType": "int256",
          "name": "a",
          "type": "int256"
        },
        {
          "internalType": "int256",
          "name": "b",
          "type": "int256"
        }
      ],
      "name": "subtract",
      "outputs": [
        {
          "internalType": "int256",
          "name": "",
          "type": "int256"
        }
      ],
      "stateMutability": "nonpayable",
      "type": "function"
    },
    {
      "inputs": [
        {
          "internalType": "int256",
          "name": "a",
          "type": "int256"
        },
        {
          "internalType": "int256",
          "name": "b",
          "type": "int256"
        }
      ],
      "name": "multiply",
      "outputs": [
        {
          "internalType": "int256",
          "name": "",
          "type": "int256"
        }
      ],
      "stateMutability": "nonpayable",
      "type": "function"
    },
    {
      "inputs": [
        {
          "internalType": "int256",
          "name": "a",
          "type": "int256"
        },
        {
          "internalType": "int256",
          "name": "b",
          "type": "int256"
        }
      ],
      "name": "divide",
      "outputs": [
        {
          "internalType": "int256",
          "name": "",
          "type": "int256"
        }
      ],
      "stateMutability": "nonpayable",
      "type": "function"
    },
    {
      "inputs": [],
      "name": "getResult",
      "outputs": [
        {
          "internalType": "int256",
          "name": "",
          "type": "int256"
        }
      ],
      "stateMutability": "view",
      "type": "function",
      "constant": true
    }
  ],
  "bytecode": "0x608060405234801561000f575f80fd5b505f80819055506104f5806100235f395ff3fe608060405234801561000f575f80fd5b5060043610610055575f3560e01c80633c4308a814610059578063a5f3c23b14610089578063b93ea812146100b9578063de292789146100e9578063f598423614610107575b5f80fd5b610073600480360381019061006e9190610228565b610137565b6040516100809190610275565b60405180910390f35b6100a3600480360381019061009e9190610228565b610153565b6040516100b09190610275565b60405180910390f35b6100d360048036038101906100ce9190610228565b61016f565b6040516100e09190610275565b60405180910390f35b6100f161018b565b6040516100fe9190610275565b60405180910390f35b610121600480360381019061011c9190610228565b610193565b60405161012e9190610275565b60405180910390f35b5f818361014491906102bb565b5f819055505f54905092915050565b5f81836101609190610331565b5f819055505f54905092915050565b5f818361017c9190610372565b5f819055505f54905092915050565b5f8054905090565b5f8082036101d6576040517f08c379a00000000000000000000000000000000000000000000000000000000081526004016101cd9061040c565b60405180910390fd5b81836101e29190610457565b5f819055505f54905092915050565b5f80fd5b5f819050919050565b610207816101f5565b8114610211575f80fd5b50565b5f81359050610222816101fe565b92915050565b5f806040838503121561023e5761023d6101f1565b5b5f61024b85828601610214565b925050602061025c85828601610214565b9150509250929050565b61026f816101f5565b82525050565b5f6020820190506102885f830184610266565b92915050565b7f4e487b71000000000000000000000000000000000000000000000000000000005f52601160045260245ffd5b5f6102c5826101f5565b91506102d0836101f5565b92508282026102de816101f5565b91507f800000000000000000000000000000000000000000000000000000000000000084145f841216156103155761031461028e565b5b828205841483151761032a5761032961028e565b5b5092915050565b5f61033b826101f5565b9150610346836101f5565b92508282019050828112155f8312168382125f84121516171561036c5761036b61028e565b5b92915050565b5f61037c826101f5565b9150610387836101f5565b925082820390508181125f8412168282135f8512151617156103ac576103ab61028e565b5b92915050565b5f82825260208201905092915050565b7f4469766973696f6e206279207a65726f000000000000000000000000000000005f82015250565b5f6103f66010836103b2565b9150610401826103c2565b602082019050919050565b5f6020820190508181035f830152610423816103ea565b9050919050565b7f4e487b71000000000000000000000000000000000000000000000000000000005f52601260045260245ffd5b5f610461826101f5565b915061046c836101f5565b92508261047c5761047b61042a565b5b60015f0383147f8000000000000000000000000000000000000000000000000000000000000000831416156104b4576104b361028e565b5b82820590509291505056fea2646970667358221220113b15b33e57c34db7c39774c6695bc0ebeae7f469586687171d9e45e329396264736f6c63430008150033",
  "immutableReferences": {},
  "source": "// SPDX-License-Identifier: MIT\r\npragma solidity ^0.8.0;\r\n\r\ncontract Calculator {\r\n    int private result;\r\n\r\n    // Constructor\r\n    constructor() {\r\n        result = 0;\r\n    }\r\n\r\n    // Add function\r\n    function add(int a, int b) public returns (int) {\r\n        result = a + b;\r\n        return result;\r\n    }\r\n\r\n    // Subtract function\r\n    function subtract(int a, int b) public returns (int) {\r\n        result = a - b;\r\n        return result;\r\n    }\r\n\r\n    // Multiply function\r\n    function multiply(int a, int b) public returns (int) {\r\n        result = a * b;\r\n        return result;\r\n    }\r\n\r\n    // Divide function\r\n    function divide(int a, int b) public returns (int) {\r\n        require(b != 0, \"Division by zero\");\r\n        result = a / b;\r\n        return result;\r\n    }\r\n\r\n    // View the result\r\n    function getResult() public view returns (int) {\r\n        return result;\r\n    }\r\n}\r\n",
  "sourcePath": "C:\\Users\\hp\\Desktop\\sol\\CalculatorProject\\contracts\\Calculator.sol",
  "compiler": {
    "name": "solc",
    "version": "0.8.21+commit.d9974bed.Emscripten.clang"
  },
  "schemaVersion": "3.4.16",
  "updatedAt": "2024-11-27T19:30:12.394Z",
  "networkType": "ethereum",
  "devdoc": {
    "kind": "dev",
    "methods": {},
    "version": 1
  },
  "userdoc": {
    "kind": "user",
    "methods": {},
    "version": 1
  }
}